:100000000C9472000C9489000C9489000C94890063
:100010000C9489000C9489000C9489000C9489003C
:100020000C9489000C9489000C9489000C9489002C
:100030000C9489000C9489000C9489000C9489001C
:100040000C9489000C9489000C9489000C9489000C
:100050000C9489000C9489000C9489000C948900FC
:100060000C9489000C9489000C9489000C948900EC
:100070000C9489000C9489000C9489000C948900DC
:100080000C9489000C9489000C9489000C948900CC
:100090000C9489000C9489000C9489000C948900BC
:1000A0000C9489000C9489000C9489000C948900AC
:1000B0000C9489000C9489000C9489000C9489009C
:1000C0000C9489000C9489000C9489000C9489008C
:1000D0000C9489000C9489000C9489000C9489007C
:1000E0000C94890011241FBECFEFD1E2DEBFCDBF3B
:1000F00012E0A0E0B2E0E0EEF1E000E00BBF02C0F1
:1001000007900D92A030B107D9F70E9495000C948A
:10011000EE000C94000020ED37E004C0F9013197A7
:10012000F1F701970097D1F708953C9A3B9A3A9AD4
:10013000399A20ED37E0449A84E690E0F90131974E
:10014000F1F70197D9F7449884E690E0F9013197E7
:10015000F1F70197D9F7449A84E690E0F9013197D5
:10016000F1F70197D9F7439A84E690E0F9013197C6
:10017000F1F70197D9F74498439884E690E0F901A4
:100180003197F1F70197D9F7429A84E690E0F901A7
:100190003197F1F70197D9F7429884E690E0F90199
:1001A0003197F1F70197D9F7429A84E690E0F90187
:1001B0003197F1F70197D9F7419A84E690E0F90178
:1001C0003197F1F70197D9F74198429884E690E08A
:1001D000F9013197F1F70197D9F7ADCFF894FFCF37
:00000001FF
