:100000000C9472000C9489000C9489000C94890063
:100010000C9489000C9489000C9489000C9489003C
:100020000C9489000C9489000C9489000C9489002C
:100030000C9489000C9489000C9489000C9489001C
:100040000C9489000C9489000C9489000C9489000C
:100050000C9489000C9489000C9489000C948900FC
:100060000C9489000C9489000C9489000C948900EC
:100070000C9489000C9489000C9489000C948900DC
:100080000C9489000C9489000C9489000C948900CC
:100090000C9489000C9489000C9489000C948900BC
:1000A0000C9489000C9489000C9489000C948900AC
:1000B0000C9489000C9489000C9489000C9489009C
:1000C0000C9489000C9489000C9489000C9489008C
:1000D0000C9489000C9489000C9489000C9489007C
:1000E0000C94890011241FBECFEFD1E2DEBFCDBF3B
:1000F00012E0A0E0B2E0EAE4F1E000E00BBF02C0F1
:1001000007900D92A030B107D9F70E948B000C9494
:10011000A3000C94000084B18C6084B929E130E024
:100120002A9A2B9880E197E2F9013197F1F701972C
:10013000D9F72A982B9A80E197E2F9013197F1F7E4
:0A0140000197D9F7EDCFF894FFCF37
:00000001FF
