:100000000C9472000C9489000C9489000C94890063
:100010000C9489000C9489000C9489000C9489003C
:100020000C9489000C9489000C9489000C9489002C
:100030000C9489000C9489000C9489000C9489001C
:100040000C9489000C9489000C9489000C9489000C
:100050000C9489000C9489000C9489000C948900FC
:100060000C9489000C9489000C9489000C948900EC
:100070000C9489000C9489000C9489000C948900DC
:100080000C9489000C9489000C9489000C948900CC
:100090000C9489000C9489000C9489000C948900BC
:1000A0000C9489000C9489000C9489000C948900AC
:1000B0000C9489000C9489000C9489000C9489009C
:1000C0000C9489000C9489000C9489000C9489008C
:1000D0000C9489000C9489000C9489000C9489007C
:1000E0000C94890011241FBECFEFD1E2DEBFCDBF3B
:1000F00012E0A0E0B2E0E0ECF1E000E00BBF02C0F3
:1001000007900D92A030B107D9F70E9495000C948A
:10011000DE000C94000020ED37E004C0F9013197B7
:10012000F1F701970097D1F708958FEF81B984B95E
:1001300087B98AB98DB980BB83BB80930101809355
:1001400004018093070180930A018AEF90E020ED7B
:1001500037E0F9013197F1F70197D9F72FEF40ED2B
:1001600057E022B925B928B92BB92EB921BB24BB38
:1001700020930201209305012093080120930B0195
:100180008AEF90E0FA013197F1F70197D9F712B8A9
:1001900015B818B81BB81EB811BA14BA10920201DB
:1001A000109205011092080110920B018AEF90E065
:1001B000FA013197F1F70197D9F7D3CFF894FFCF30
:00000001FF
